{
  "_format": "hh3-artifact-1",
  "contractName": "ArtistCoin",
  "sourceName": "contracts/ArtistCoin.sol",
  "abi": [
    {
      "inputs": [
        {
          "internalType": "string",
          "name": "name",
          "type": "string"
        },
        {
          "internalType": "string",
          "name": "symbol",
          "type": "string"
        }
      ],
      "stateMutability": "nonpayable",
      "type": "constructor"
    },
    {
      "inputs": [
        {
          "internalType": "address",
          "name": "spender",
          "type": "address"
        },
        {
          "internalType": "uint256",
          "name": "allowance",
          "type": "uint256"
        },
        {
          "internalType": "uint256",
          "name": "needed",
          "type": "uint256"
        }
      ],
      "name": "ERC20InsufficientAllowance",
      "type": "error"
    },
    {
      "inputs": [
        {
          "internalType": "address",
          "name": "sender",
          "type": "address"
        },
        {
          "internalType": "uint256",
          "name": "balance",
          "type": "uint256"
        },
        {
          "internalType": "uint256",
          "name": "needed",
          "type": "uint256"
        }
      ],
      "name": "ERC20InsufficientBalance",
      "type": "error"
    },
    {
      "inputs": [
        {
          "internalType": "address",
          "name": "approver",
          "type": "address"
        }
      ],
      "name": "ERC20InvalidApprover",
      "type": "error"
    },
    {
      "inputs": [
        {
          "internalType": "address",
          "name": "receiver",
          "type": "address"
        }
      ],
      "name": "ERC20InvalidReceiver",
      "type": "error"
    },
    {
      "inputs": [
        {
          "internalType": "address",
          "name": "sender",
          "type": "address"
        }
      ],
      "name": "ERC20InvalidSender",
      "type": "error"
    },
    {
      "inputs": [
        {
          "internalType": "address",
          "name": "spender",
          "type": "address"
        }
      ],
      "name": "ERC20InvalidSpender",
      "type": "error"
    },
    {
      "inputs": [
        {
          "internalType": "address",
          "name": "owner",
          "type": "address"
        }
      ],
      "name": "OwnableInvalidOwner",
      "type": "error"
    },
    {
      "inputs": [
        {
          "internalType": "address",
          "name": "account",
          "type": "address"
        }
      ],
      "name": "OwnableUnauthorizedAccount",
      "type": "error"
    },
    {
      "inputs": [],
      "name": "ReentrancyGuardReentrantCall",
      "type": "error"
    },
    {
      "anonymous": false,
      "inputs": [
        {
          "indexed": true,
          "internalType": "address",
          "name": "owner",
          "type": "address"
        },
        {
          "indexed": true,
          "internalType": "address",
          "name": "spender",
          "type": "address"
        },
        {
          "indexed": false,
          "internalType": "uint256",
          "name": "value",
          "type": "uint256"
        }
      ],
      "name": "Approval",
      "type": "event"
    },
    {
      "anonymous": false,
      "inputs": [
        {
          "indexed": true,
          "internalType": "address",
          "name": "to",
          "type": "address"
        },
        {
          "indexed": false,
          "internalType": "uint256",
          "name": "weiAmount",
          "type": "uint256"
        }
      ],
      "name": "DividendWithdrawn",
      "type": "event"
    },
    {
      "anonymous": false,
      "inputs": [
        {
          "indexed": true,
          "internalType": "address",
          "name": "from",
          "type": "address"
        },
        {
          "indexed": false,
          "internalType": "uint256",
          "name": "weiAmount",
          "type": "uint256"
        }
      ],
      "name": "DividendsDistributed",
      "type": "event"
    },
    {
      "anonymous": false,
      "inputs": [
        {
          "indexed": true,
          "internalType": "address",
          "name": "previousOwner",
          "type": "address"
        },
        {
          "indexed": true,
          "internalType": "address",
          "name": "newOwner",
          "type": "address"
        }
      ],
      "name": "OwnershipTransferred",
      "type": "event"
    },
    {
      "anonymous": false,
      "inputs": [
        {
          "indexed": true,
          "internalType": "address",
          "name": "from",
          "type": "address"
        },
        {
          "indexed": true,
          "internalType": "address",
          "name": "to",
          "type": "address"
        },
        {
          "indexed": false,
          "internalType": "uint256",
          "name": "value",
          "type": "uint256"
        }
      ],
      "name": "Transfer",
      "type": "event"
    },
    {
      "inputs": [],
      "name": "MAX_SUPPLY",
      "outputs": [
        {
          "internalType": "uint256",
          "name": "",
          "type": "uint256"
        }
      ],
      "stateMutability": "view",
      "type": "function"
    },
    {
      "inputs": [
        {
          "internalType": "address",
          "name": "_owner",
          "type": "address"
        }
      ],
      "name": "accumulativeDividendOf",
      "outputs": [
        {
          "internalType": "uint256",
          "name": "",
          "type": "uint256"
        }
      ],
      "stateMutability": "view",
      "type": "function"
    },
    {
      "inputs": [
        {
          "internalType": "address",
          "name": "owner",
          "type": "address"
        },
        {
          "internalType": "address",
          "name": "spender",
          "type": "address"
        }
      ],
      "name": "allowance",
      "outputs": [
        {
          "internalType": "uint256",
          "name": "",
          "type": "uint256"
        }
      ],
      "stateMutability": "view",
      "type": "function"
    },
    {
      "inputs": [
        {
          "internalType": "address",
          "name": "spender",
          "type": "address"
        },
        {
          "internalType": "uint256",
          "name": "value",
          "type": "uint256"
        }
      ],
      "name": "approve",
      "outputs": [
        {
          "internalType": "bool",
          "name": "",
          "type": "bool"
        }
      ],
      "stateMutability": "nonpayable",
      "type": "function"
    },
    {
      "inputs": [
        {
          "internalType": "address",
          "name": "account",
          "type": "address"
        }
      ],
      "name": "balanceOf",
      "outputs": [
        {
          "internalType": "uint256",
          "name": "",
          "type": "uint256"
        }
      ],
      "stateMutability": "view",
      "type": "function"
    },
    {
      "inputs": [],
      "name": "collect",
      "outputs": [],
      "stateMutability": "nonpayable",
      "type": "function"
    },
    {
      "inputs": [],
      "name": "decimals",
      "outputs": [
        {
          "internalType": "uint8",
          "name": "",
          "type": "uint8"
        }
      ],
      "stateMutability": "view",
      "type": "function"
    },
    {
      "inputs": [],
      "name": "distributeDividends",
      "outputs": [],
      "stateMutability": "payable",
      "type": "function"
    },
    {
      "inputs": [
        {
          "internalType": "address",
          "name": "_owner",
          "type": "address"
        }
      ],
      "name": "dividendOf",
      "outputs": [
        {
          "internalType": "uint256",
          "name": "",
          "type": "uint256"
        }
      ],
      "stateMutability": "view",
      "type": "function"
    },
    {
      "inputs": [],
      "name": "locked",
      "outputs": [
        {
          "internalType": "bool",
          "name": "",
          "type": "bool"
        }
      ],
      "stateMutability": "view",
      "type": "function"
    },
    {
      "inputs": [
        {
          "internalType": "address",
          "name": "to_",
          "type": "address"
        }
      ],
      "name": "mint",
      "outputs": [],
      "stateMutability": "payable",
      "type": "function"
    },
    {
      "inputs": [],
      "name": "name",
      "outputs": [
        {
          "internalType": "string",
          "name": "",
          "type": "string"
        }
      ],
      "stateMutability": "view",
      "type": "function"
    },
    {
      "inputs": [],
      "name": "owner",
      "outputs": [
        {
          "internalType": "address",
          "name": "",
          "type": "address"
        }
      ],
      "stateMutability": "view",
      "type": "function"
    },
    {
      "inputs": [],
      "name": "ownerWithdrawable",
      "outputs": [
        {
          "internalType": "uint256",
          "name": "",
          "type": "uint256"
        }
      ],
      "stateMutability": "view",
      "type": "function"
    },
    {
      "inputs": [],
      "name": "renounceOwnership",
      "outputs": [],
      "stateMutability": "nonpayable",
      "type": "function"
    },
    {
      "inputs": [],
      "name": "symbol",
      "outputs": [
        {
          "internalType": "string",
          "name": "",
          "type": "string"
        }
      ],
      "stateMutability": "view",
      "type": "function"
    },
    {
      "inputs": [],
      "name": "toggleLock",
      "outputs": [],
      "stateMutability": "nonpayable",
      "type": "function"
    },
    {
      "inputs": [],
      "name": "totalSupply",
      "outputs": [
        {
          "internalType": "uint256",
          "name": "",
          "type": "uint256"
        }
      ],
      "stateMutability": "view",
      "type": "function"
    },
    {
      "inputs": [
        {
          "internalType": "address",
          "name": "to",
          "type": "address"
        },
        {
          "internalType": "uint256",
          "name": "value",
          "type": "uint256"
        }
      ],
      "name": "transfer",
      "outputs": [
        {
          "internalType": "bool",
          "name": "",
          "type": "bool"
        }
      ],
      "stateMutability": "nonpayable",
      "type": "function"
    },
    {
      "inputs": [
        {
          "internalType": "address",
          "name": "from",
          "type": "address"
        },
        {
          "internalType": "address",
          "name": "to",
          "type": "address"
        },
        {
          "internalType": "uint256",
          "name": "value",
          "type": "uint256"
        }
      ],
      "name": "transferFrom",
      "outputs": [
        {
          "internalType": "bool",
          "name": "",
          "type": "bool"
        }
      ],
      "stateMutability": "nonpayable",
      "type": "function"
    },
    {
      "inputs": [
        {
          "internalType": "address",
          "name": "newOwner",
          "type": "address"
        }
      ],
      "name": "transferOwnership",
      "outputs": [],
      "stateMutability": "nonpayable",
      "type": "function"
    },
    {
      "inputs": [],
      "name": "withdrawDividend",
      "outputs": [],
      "stateMutability": "nonpayable",
      "type": "function"
    },
    {
      "inputs": [
        {
          "internalType": "address",
          "name": "_owner",
          "type": "address"
        }
      ],
      "name": "withdrawableDividendOf",
      "outputs": [
        {
          "internalType": "uint256",
          "name": "",
          "type": "uint256"
        }
      ],
      "stateMutability": "view",
      "type": "function"
    },
    {
      "inputs": [
        {
          "internalType": "address",
          "name": "_owner",
          "type": "address"
        }
      ],
      "name": "withdrawnDividendOf",
      "outputs": [
        {
          "internalType": "uint256",
          "name": "",
          "type": "uint256"
        }
      ],
      "stateMutability": "view",
      "type": "function"
    },
    {
      "stateMutability": "payable",
      "type": "receive"
    }
  ],
  "bytecode": "0x608060405234801561000f575f5ffd5b506040516122e83803806122e8833981810160405281019061003191906102f5565b3382828160039081610043919061057b565b508060049081610053919061057b565b5050505f73ffffffffffffffffffffffffffffffffffffffff168173ffffffffffffffffffffffffffffffffffffffff16036100c6575f6040517f1e4fbdf70000000000000000000000000000000000000000000000000000000081526004016100bd9190610689565b60405180910390fd5b6100d5816100e560201b60201c565b50600160068190555050506106a2565b5f60055f9054906101000a900473ffffffffffffffffffffffffffffffffffffffff1690508160055f6101000a81548173ffffffffffffffffffffffffffffffffffffffff021916908373ffffffffffffffffffffffffffffffffffffffff1602179055508173ffffffffffffffffffffffffffffffffffffffff168173ffffffffffffffffffffffffffffffffffffffff167f8be0079c531659141344cd1fd0a4f28419497f9722a3daafe3b4186f6b6457e060405160405180910390a35050565b5f604051905090565b5f5ffd5b5f5ffd5b5f5ffd5b5f5ffd5b5f601f19601f8301169050919050565b7f4e487b71000000000000000000000000000000000000000000000000000000005f52604160045260245ffd5b610207826101c1565b810181811067ffffffffffffffff82111715610226576102256101d1565b5b80604052505050565b5f6102386101a8565b905061024482826101fe565b919050565b5f67ffffffffffffffff821115610263576102626101d1565b5b61026c826101c1565b9050602081019050919050565b8281835e5f83830152505050565b5f61029961029484610249565b61022f565b9050828152602081018484840111156102b5576102b46101bd565b5b6102c0848285610279565b509392505050565b5f82601f8301126102dc576102db6101b9565b5b81516102ec848260208601610287565b91505092915050565b5f5f6040838503121561030b5761030a6101b1565b5b5f83015167ffffffffffffffff811115610328576103276101b5565b5b610334858286016102c8565b925050602083015167ffffffffffffffff811115610355576103546101b5565b5b610361858286016102c8565b9150509250929050565b5f81519050919050565b7f4e487b71000000000000000000000000000000000000000000000000000000005f52602260045260245ffd5b5f60028204905060018216806103b957607f821691505b6020821081036103cc576103cb610375565b5b50919050565b5f819050815f5260205f209050919050565b5f6020601f8301049050919050565b5f82821b905092915050565b5f6008830261042e7fffffffffffffffffffffffffffffffffffffffffffffffffffffffffffffffff826103f3565b61043886836103f3565b95508019841693508086168417925050509392505050565b5f819050919050565b5f819050919050565b5f61047c61047761047284610450565b610459565b610450565b9050919050565b5f819050919050565b61049583610462565b6104a96104a182610483565b8484546103ff565b825550505050565b5f5f905090565b6104c06104b1565b6104cb81848461048c565b505050565b5b818110156104ee576104e35f826104b8565b6001810190506104d1565b5050565b601f82111561053357610504816103d2565b61050d846103e4565b8101602085101561051c578190505b610530610528856103e4565b8301826104d0565b50505b505050565b5f82821c905092915050565b5f6105535f1984600802610538565b1980831691505092915050565b5f61056b8383610544565b9150826002028217905092915050565b6105848261036b565b67ffffffffffffffff81111561059d5761059c6101d1565b5b6105a782546103a2565b6105b28282856104f2565b5f60209050601f8311600181146105e3575f84156105d1578287015190505b6105db8582610560565b865550610642565b601f1984166105f1866103d2565b5f5b82811015610618578489015182556001820191506020850194506020810190506105f3565b868310156106355784890151610631601f891682610544565b8355505b6001600288020188555050505b505050505050565b5f73ffffffffffffffffffffffffffffffffffffffff82169050919050565b5f6106738261064a565b9050919050565b61068381610669565b82525050565b5f60208201905061069c5f83018461067a565b92915050565b611c39806106af5f395ff3fe60806040526004361061014e575f3560e01c8063715018a6116100b5578063aafd847a1161006e578063aafd847a1461047d578063cf309012146104b9578063dd62ed3e146104e3578063e52253811461051f578063f2fde38b14610535578063ff9413d81461055d5761015d565b8063715018a61461035f5780638da5cb5b1461037557806391b89fba1461039f57806395d89b41146103db578063a8b9d24014610405578063a9059cbb146104415761015d565b8063313ce56711610107578063313ce5671461027357806332cb6b0c1461029d5780633ec789cf146102c75780636a474002146102f15780636a6278421461030757806370a08231146103235761015d565b806303c833021461016157806306fdde031461016b578063095ea7b31461019557806318160ddd146101d157806323b872dd146101fb57806327ce0147146102375761015d565b3661015d5761015b610573565b005b5f5ffd5b610169610573565b005b348015610176575f5ffd5b5061017f610624565b60405161018c9190611687565b60405180910390f35b3480156101a0575f5ffd5b506101bb60048036038101906101b69190611738565b6106b4565b6040516101c89190611790565b60405180910390f35b3480156101dc575f5ffd5b506101e56106d6565b6040516101f291906117b8565b60405180910390f35b348015610206575f5ffd5b50610221600480360381019061021c91906117d1565b6106df565b60405161022e9190611790565b60405180910390f35b348015610242575f5ffd5b5061025d60048036038101906102589190611821565b61070d565b60405161026a91906117b8565b60405180910390f35b34801561027e575f5ffd5b50610287610797565b6040516102949190611867565b60405180910390f35b3480156102a8575f5ffd5b506102b161079f565b6040516102be91906117b8565b60405180910390f35b3480156102d2575f5ffd5b506102db6107ac565b6040516102e891906117b8565b60405180910390f35b3480156102fc575f5ffd5b506103056107b2565b005b610321600480360381019061031c9190611821565b61090e565b005b34801561032e575f5ffd5b5061034960048036038101906103449190611821565b610993565b60405161035691906117b8565b60405180910390f35b34801561036a575f5ffd5b506103736109d8565b005b348015610380575f5ffd5b506103896109eb565b604051610396919061188f565b60405180910390f35b3480156103aa575f5ffd5b506103c560048036038101906103c09190611821565b610a13565b6040516103d291906117b8565b60405180910390f35b3480156103e6575f5ffd5b506103ef610a24565b6040516103fc9190611687565b60405180910390f35b348015610410575f5ffd5b5061042b60048036038101906104269190611821565b610ab4565b60405161043891906117b8565b60405180910390f35b34801561044c575f5ffd5b5061046760048036038101906104629190611738565b610b0d565b6040516104749190611790565b60405180910390f35b348015610488575f5ffd5b506104a3600480360381019061049e9190611821565b610b2f565b6040516104b091906117b8565b60405180910390f35b3480156104c4575f5ffd5b506104cd610b75565b6040516104da9190611790565b60405180910390f35b3480156104ee575f5ffd5b50610509600480360381019061050491906118a8565b610b87565b60405161051691906117b8565b60405180910390f35b34801561052a575f5ffd5b50610533610c09565b005b348015610540575f5ffd5b5061055b60048036038101906105569190611821565b610c82565b005b348015610568575f5ffd5b50610571610d06565b005b5f61057c6106d6565b11610585575f5ffd5b5f341115610622576105956106d6565b700100000000000000000000000000000000346105b29190611913565b6105bc9190611981565b60075f8282546105cc91906119b1565b925050819055503373ffffffffffffffffffffffffffffffffffffffff167fa493a9229478c3fcd73f66d2cdeb7f94fd0f341da924d1054236d784541165113460405161061991906117b8565b60405180910390a25b565b60606003805461063390611a11565b80601f016020809104026020016040519081016040528092919081815260200182805461065f90611a11565b80156106aa5780601f10610681576101008083540402835291602001916106aa565b820191905f5260205f20905b81548152906001019060200180831161068d57829003601f168201915b5050505050905090565b5f5f6106be610d38565b90506106cb818585610d3f565b600191505092915050565b5f600254905090565b5f5f6106e9610d38565b90506106f6858285610d51565b610701858585610de4565b60019150509392505050565b5f5f61071883610993565b6007546107259190611913565b9050600a5f8473ffffffffffffffffffffffffffffffffffffffff1673ffffffffffffffffffffffffffffffffffffffff1681526020019081526020015f2054816107709190611a4a565b90507001000000000000000000000000000000008161078f9190611981565b915050919050565b5f6012905090565b68056bc75e2d6310000081565b60085481565b6107ba610ed4565b60095f9054906101000a900460ff1615610809576040517f08c379a000000000000000000000000000000000000000000000000000000000815260040161080090611ad5565b60405180910390fd5b5f61081333610ab4565b90505f8111156109035780600b5f3373ffffffffffffffffffffffffffffffffffffffff1673ffffffffffffffffffffffffffffffffffffffff1681526020019081526020015f205f82825461086991906119b1565b925050819055503373ffffffffffffffffffffffffffffffffffffffff167fee503bee2bb6a87e57bc57db795f98137327401a0e7b7ce42e37926cc1a9ca4d826040516108b691906117b8565b60405180910390a23373ffffffffffffffffffffffffffffffffffffffff166108fc8290811502906040515f60405180830381858888f19350505050158015610901573d5f5f3e3d5ffd5b505b5061090c610f1a565b565b3468056bc75e2d631000006109216106d6565b8261092c91906119b1565b111561096d576040517f08c379a000000000000000000000000000000000000000000000000000000000815260040161096490611b3d565b60405180910390fd5b3460085f82825461097e91906119b1565b9250508190555061098f8234610f24565b5050565b5f5f5f8373ffffffffffffffffffffffffffffffffffffffff1673ffffffffffffffffffffffffffffffffffffffff1681526020019081526020015f20549050919050565b6109e0610fa3565b6109e95f61102a565b565b5f60055f9054906101000a900473ffffffffffffffffffffffffffffffffffffffff16905090565b5f610a1d82610ab4565b9050919050565b606060048054610a3390611a11565b80601f0160208091040260200160405190810160405280929190818152602001828054610a5f90611a11565b8015610aaa5780601f10610a8157610100808354040283529160200191610aaa565b820191905f5260205f20905b815481529060010190602001808311610a8d57829003601f168201915b5050505050905090565b5f600b5f8373ffffffffffffffffffffffffffffffffffffffff1673ffffffffffffffffffffffffffffffffffffffff1681526020019081526020015f2054610afc8361070d565b610b069190611b5b565b9050919050565b5f5f610b17610d38565b9050610b24818585610de4565b600191505092915050565b5f600b5f8373ffffffffffffffffffffffffffffffffffffffff1673ffffffffffffffffffffffffffffffffffffffff1681526020019081526020015f20549050919050565b60095f9054906101000a900460ff1681565b5f60015f8473ffffffffffffffffffffffffffffffffffffffff1673ffffffffffffffffffffffffffffffffffffffff1681526020019081526020015f205f8373ffffffffffffffffffffffffffffffffffffffff1673ffffffffffffffffffffffffffffffffffffffff1681526020019081526020015f2054905092915050565b610c11610fa3565b610c19610ed4565b5f60085411610c26575f5ffd5b5f60085490505f6008819055503373ffffffffffffffffffffffffffffffffffffffff166108fc8290811502906040515f60405180830381858888f19350505050158015610c76573d5f5f3e3d5ffd5b5050610c80610f1a565b565b610c8a610fa3565b5f73ffffffffffffffffffffffffffffffffffffffff168173ffffffffffffffffffffffffffffffffffffffff1603610cfa575f6040517f1e4fbdf7000000000000000000000000000000000000000000000000000000008152600401610cf1919061188f565b60405180910390fd5b610d038161102a565b50565b610d0e610fa3565b60095f9054906101000a900460ff161560095f6101000a81548160ff021916908315150217905550565b5f33905090565b610d4c83838360016110ed565b505050565b5f610d5c8484610b87565b90507fffffffffffffffffffffffffffffffffffffffffffffffffffffffffffffffff811015610dde5781811015610dcf578281836040517ffb8f41b2000000000000000000000000000000000000000000000000000000008152600401610dc693929190611b8e565b60405180910390fd5b610ddd84848484035f6110ed565b5b50505050565b5f73ffffffffffffffffffffffffffffffffffffffff168373ffffffffffffffffffffffffffffffffffffffff1603610e54575f6040517f96c6fd1e000000000000000000000000000000000000000000000000000000008152600401610e4b919061188f565b60405180910390fd5b5f73ffffffffffffffffffffffffffffffffffffffff168273ffffffffffffffffffffffffffffffffffffffff1603610ec4575f6040517fec442f05000000000000000000000000000000000000000000000000000000008152600401610ebb919061188f565b60405180910390fd5b610ecf8383836112bc565b505050565b600260065403610f10576040517f3ee5aeb500000000000000000000000000000000000000000000000000000000815260040160405180910390fd5b6002600681905550565b6001600681905550565b5f73ffffffffffffffffffffffffffffffffffffffff168273ffffffffffffffffffffffffffffffffffffffff1603610f94575f6040517fec442f05000000000000000000000000000000000000000000000000000000008152600401610f8b919061188f565b60405180910390fd5b610f9f5f83836112bc565b5050565b610fab610d38565b73ffffffffffffffffffffffffffffffffffffffff16610fc96109eb565b73ffffffffffffffffffffffffffffffffffffffff161461102857610fec610d38565b6040517f118cdaa700000000000000000000000000000000000000000000000000000000815260040161101f919061188f565b60405180910390fd5b565b5f60055f9054906101000a900473ffffffffffffffffffffffffffffffffffffffff1690508160055f6101000a81548173ffffffffffffffffffffffffffffffffffffffff021916908373ffffffffffffffffffffffffffffffffffffffff1602179055508173ffffffffffffffffffffffffffffffffffffffff168173ffffffffffffffffffffffffffffffffffffffff167f8be0079c531659141344cd1fd0a4f28419497f9722a3daafe3b4186f6b6457e060405160405180910390a35050565b5f73ffffffffffffffffffffffffffffffffffffffff168473ffffffffffffffffffffffffffffffffffffffff160361115d575f6040517fe602df05000000000000000000000000000000000000000000000000000000008152600401611154919061188f565b60405180910390fd5b5f73ffffffffffffffffffffffffffffffffffffffff168373ffffffffffffffffffffffffffffffffffffffff16036111cd575f6040517f94280d620000000000000000000000000000000000000000000000000000000081526004016111c4919061188f565b60405180910390fd5b8160015f8673ffffffffffffffffffffffffffffffffffffffff1673ffffffffffffffffffffffffffffffffffffffff1681526020019081526020015f205f8573ffffffffffffffffffffffffffffffffffffffff1673ffffffffffffffffffffffffffffffffffffffff1681526020019081526020015f208190555080156112b6578273ffffffffffffffffffffffffffffffffffffffff168473ffffffffffffffffffffffffffffffffffffffff167f8c5be1e5ebec7d5bd14f71427d1e84f3dd0314c0f7b2291e5b200ac8c7c3b925846040516112ad91906117b8565b60405180910390a35b50505050565b6112c78383836113fe565b5f73ffffffffffffffffffffffffffffffffffffffff168373ffffffffffffffffffffffffffffffffffffffff1614611360575f816007546113099190611913565b905080600a5f8673ffffffffffffffffffffffffffffffffffffffff1673ffffffffffffffffffffffffffffffffffffffff1681526020019081526020015f205f8282546113579190611a4a565b92505081905550505b5f73ffffffffffffffffffffffffffffffffffffffff168273ffffffffffffffffffffffffffffffffffffffff16146113f9575f816007546113a29190611913565b905080600a5f8573ffffffffffffffffffffffffffffffffffffffff1673ffffffffffffffffffffffffffffffffffffffff1681526020019081526020015f205f8282546113f09190611bc3565b92505081905550505b505050565b5f73ffffffffffffffffffffffffffffffffffffffff168373ffffffffffffffffffffffffffffffffffffffff160361144e578060025f82825461144291906119b1565b9250508190555061151c565b5f5f5f8573ffffffffffffffffffffffffffffffffffffffff1673ffffffffffffffffffffffffffffffffffffffff1681526020019081526020015f20549050818110156114d7578381836040517fe450d38c0000000000000000000000000000000000000000000000000000000081526004016114ce93929190611b8e565b60405180910390fd5b8181035f5f8673ffffffffffffffffffffffffffffffffffffffff1673ffffffffffffffffffffffffffffffffffffffff1681526020019081526020015f2081905550505b5f73ffffffffffffffffffffffffffffffffffffffff168273ffffffffffffffffffffffffffffffffffffffff1603611563578060025f82825403925050819055506115ad565b805f5f8473ffffffffffffffffffffffffffffffffffffffff1673ffffffffffffffffffffffffffffffffffffffff1681526020019081526020015f205f82825401925050819055505b8173ffffffffffffffffffffffffffffffffffffffff168373ffffffffffffffffffffffffffffffffffffffff167fddf252ad1be2c89b69c2b068fc378daa952ba7f163c4a11628f55a4df523b3ef8360405161160a91906117b8565b60405180910390a3505050565b5f81519050919050565b5f82825260208201905092915050565b8281835e5f83830152505050565b5f601f19601f8301169050919050565b5f61165982611617565b6116638185611621565b9350611673818560208601611631565b61167c8161163f565b840191505092915050565b5f6020820190508181035f83015261169f818461164f565b905092915050565b5f5ffd5b5f73ffffffffffffffffffffffffffffffffffffffff82169050919050565b5f6116d4826116ab565b9050919050565b6116e4816116ca565b81146116ee575f5ffd5b50565b5f813590506116ff816116db565b92915050565b5f819050919050565b61171781611705565b8114611721575f5ffd5b50565b5f813590506117328161170e565b92915050565b5f5f6040838503121561174e5761174d6116a7565b5b5f61175b858286016116f1565b925050602061176c85828601611724565b9150509250929050565b5f8115159050919050565b61178a81611776565b82525050565b5f6020820190506117a35f830184611781565b92915050565b6117b281611705565b82525050565b5f6020820190506117cb5f8301846117a9565b92915050565b5f5f5f606084860312156117e8576117e76116a7565b5b5f6117f5868287016116f1565b9350506020611806868287016116f1565b925050604061181786828701611724565b9150509250925092565b5f60208284031215611836576118356116a7565b5b5f611843848285016116f1565b91505092915050565b5f60ff82169050919050565b6118618161184c565b82525050565b5f60208201905061187a5f830184611858565b92915050565b611889816116ca565b82525050565b5f6020820190506118a25f830184611880565b92915050565b5f5f604083850312156118be576118bd6116a7565b5b5f6118cb858286016116f1565b92505060206118dc858286016116f1565b9150509250929050565b7f4e487b71000000000000000000000000000000000000000000000000000000005f52601160045260245ffd5b5f61191d82611705565b915061192883611705565b925082820261193681611705565b9150828204841483151761194d5761194c6118e6565b5b5092915050565b7f4e487b71000000000000000000000000000000000000000000000000000000005f52601260045260245ffd5b5f61198b82611705565b915061199683611705565b9250826119a6576119a5611954565b5b828204905092915050565b5f6119bb82611705565b91506119c683611705565b92508282019050808211156119de576119dd6118e6565b5b92915050565b7f4e487b71000000000000000000000000000000000000000000000000000000005f52602260045260245ffd5b5f6002820490506001821680611a2857607f821691505b602082108103611a3b57611a3a6119e4565b5b50919050565b5f819050919050565b5f611a5482611a41565b9150611a5f83611a41565b92508282019050828112155f8312168382125f841215161715611a8557611a846118e6565b5b92915050565b7f636f6e74726163742069732063757272656e746c79206c6f636b6564000000005f82015250565b5f611abf601c83611621565b9150611aca82611a8b565b602082019050919050565b5f6020820190508181035f830152611aec81611ab3565b9050919050565b7f616d6f756e7420737572706173736573206d617820737570706c7900000000005f82015250565b5f611b27601b83611621565b9150611b3282611af3565b602082019050919050565b5f6020820190508181035f830152611b5481611b1b565b9050919050565b5f611b6582611705565b9150611b7083611705565b9250828203905081811115611b8857611b876118e6565b5b92915050565b5f606082019050611ba15f830186611880565b611bae60208301856117a9565b611bbb60408301846117a9565b949350505050565b5f611bcd82611a41565b9150611bd883611a41565b925082820390508181125f8412168282135f851215161715611bfd57611bfc6118e6565b5b9291505056fea26469706673582212209f505856f0e916e660d83d9f2aab48f868b29ccf316f97b72b8289829aa691f564736f6c634300081c0033",
  "linkReferences": {},
  "deployedLinkReferences": {},
  "immutableReferences": {},
  "inputSourceName": "project/contracts/ArtistCoin.sol",
  "buildInfoId": "solc-0_8_28-d25b35def94dd9ac4b297eccd59c6b4bf62585f5"
}